:020000040000FA
:100000004343323678325231002AC0DE0301F7FF13
:10001000FFFF0700FFFFFFFF0CCA0300A80000005E
:10002000303030310BCA03002C00FFFF01F7FFFF17
:10003000E0C9030000000000FFFFFFFFFFFFFFFF1C
:10004000FFFFFFFFFFFFFFFFFFFFFFFFFFFFFFFFC0
:10005000FFFFFFFFFFFFFFFFFFFFFFFFFFFFFFFFB0
:10006000FFFFFFFFFFFFFFFFFFFFFFFFFFFFFFFFA0
:10007000FFFFFFFFFFFFFFFFFFFFFFFFFFFFFFFF90
:10008000FFFFFFFFFFFFFFFFFFFFFFFFFFFFFFFF80
:10009000FFFFFFFFFFFFFFFFFFFFFFFFFFFFFFFF70
:1000A000FFFFFFFFFFFFFFFF004001201DC4030013
:1000B00039FB021039FB021039FB021039FB021028
:1000C00039FB021039FB021039FB021039FB021018
:1000D00039FB021039FB021039FB021039FB021008
:1000E00011FB0210FFFFFFFFFFFFFFFFFFFFFFFFFE
:1000F000FFFFFFFFFFFFFFFFFFFFFFFFFFFFFFFF10
:10010000FFFFFFFFFFFFFFFFFFFFFFFFFFFFFFFFFF
:10011000FFFFFFFFFFFFFFFFFFFFFFFFFFFFFFFFEF
:10012000FFFFFFFFFFFFFFFFFFFFFFFFFFFFFFFFDF
:1010000001000000000000000000000000000000DF
:10101000FFFFFFFF702E0020040000000000000012
:101020000000000014000000D416000018000000AA
:1010300040150000C0100000DC2D0020040000005E
:10104000000000000000000024000000C0150000A7
:10105000180000000D72030008000000B01100002D
:1010600074100000C1C8021001BB021091EB021005
:10107000DDE5021081E00210B9E5021071E5021011
:10108000310000000100000001000000EC1600002B
:1010900000000000FFFFFFFF482E002004000000BA
:1010A000000000000000000028000000AC16000056
:1010B000240000001E0000001800000000000000D6
:1010C00028130000D41000009BEC021025E202104F
:1010D00005EB021025DE0210FDE10210E1E4021032
:1010E0002F00000034000000240028000000000051
:1010F000BC2D0020FFFFFFFF902E00200400000009
:101100000000000000000000380000006017000030
:101110002800000001000000100000000000000096
:1011200000000000F7F1021000001A00100000009B
:1011300004000000C417000062B8000008000000AE
:1011400036000000502E0020982E002009001D00BF
:101150001B730000E42D00200100000000001200BD
:10116000FFFFFFFF802E00200400000000000000B1
:10117000000000001000000024170000180000000C
:101180000000000000001300FFFFFFFFF82E00200A
:1011900004000000000000000000000054000000F7
:1011A000881700003C000000000001002D00000036
:1011B000041000005B7A0000300000000000000016
:1011C000B0110000D8110000219E0300D9DB0210ED
:1011D00059EC0210CDD6021085DE02104DE502104A
:1011E00029E5021030000000000016000000000099
:1011F00000000000FF7F0000002F0020FFFFFFFF26
:10120000782E002004000000000000000000000014
:1012100058000000F01600003400000039FB0210F6
:1012200001002F0006000000000000002000000068
:10123000010000001BF80210280000002813000025
:101240005012000093EC02106DEB02104DEC0210F6
:1012500029E00210BDE4021099E402102D00000004
:1012600000000000242E0020040000000000000008
:101270000000000010000000D81500002C00000045
:10128000000000000000030000000F003C00000010
:1012900000000000000000002FF902101000000004
:1012A00008000000D4170000FFFFFFFF882E002079
:1012B0000400000000000000000000001C0000000E
:1012C0003C170000240000003C120000D42D002038
:1012D0000400000000000000000000000C000000FE
:1012E00048150000180000002B80000000000000DE
:1012F00000000000080000000100000004000000E1
:101300000000000000001400000000003C2D000060
:10131000000019000000180024000000AFC4030002
:101320000040000000020000041000000000100057
:1013300055F002100C000000437203000000000092
:10134000B42D002004000000000000000000000098
:10135000200000001015000030000000542D000097
:101360000100000003730300A373000000000000ED
:101370000000170000020000310000000000230000
:101380000000150001000000C0110000402E0020E8
:101390000400000000000000000000002000000029
:1013A0008816000024000000E8740300342E00209A
:1013B00020000000E8170000FFFFFFFFFFFFFFFF16
:1013C00085710300977303009B7303009F730300F1
:1013D000A3730300A7730300AB730300F19C030026
:1013E000A59D0300AD9C03004BC403002DC4030066
:1013F0007D9D0300899D03007DC40300D99D0300EA
:10140000599F03006D9F03000128000000000000A9
:10141000000000000001003000000000000000009B
:101420000003FF186400000000000000000000003E
:101430007856341200000000BAAB00000000000132
:1014400000000000000000002A201B1424201B14B0
:1014500024201B1400000000E4FEFFFFFFFFFFFF3D
:1014600048FFFFFFFFFFFFFF180200000000000021
:10147000A266FEFFFFFFFFFF7DFBFFFFFFFFFFFFF9
:1014800062AC0000000000008E21FBFFFFFFFFFFA9
:1014900015F2FFFFFFFFFFFFAEF2FFFFFFFFFFFFB1
:1014A0005FFE0300000000003E82FFFFFFFFFFFF22
:1014B0006D38FEFFFFFFFFFF00008001100080FF7E
:1014C000FDFF58003AFFB7F3FFFFFFFFFFFFFFFFED
:1014D000FFFFFFFFFFFFFFFFFFFFFFFFFFFFFFFF1C
:1014E000FFFFFFFFFFFFFFFFFFFFFFC5FFFFFFFF46
:1014F00000FFFFFF00C5C5FF000000FF0000000067
:10150000FFFFFFFFFFFFFFFFFFFFFFFFFFFFFFFFEB
:10151000300000000000000000000000381500004E
:10152000040000000000000001000000FFFFFFFFBA
:10153000FF000000010000000800000000000000A3
:101540000000000000000000180000000000000083
:101550000000000058150000080000000000000016
:10156000100000002813000078150000A7C4030035
:101570009175030019750300CD73030021740300F6
:10158000B17303002E000000641500001C2E002023
:101590000400000000000000000000002000000027
:1015A000A81500001800000018000000000000004E
:1015B00000000000B8150000080000000000000056
:1015C000180000000000000000000000D01500001E
:1015D00008000000000000002C00000000000000D7
:1015E00000000000FC1500000400000000000000E6
:1015F00001000000FFFFFFFFFFFFFFFF08000000EA
:1016000000000000B01100001C160000219F030024
:10161000319F03004D9F0300419F0300637403004B
:101620008D740300417403003200000004160000B2
:101630002C2E00200400000000000000000000002C
:10164000140000004C1600001C0000001C000000EC
:101650000000000000000000601600000000000014
:10166000080000000000000001000000AF4A000078
:10167000ABC403005F640000B34A0000B74A000037
:10168000A34A0000C14A000024000000000000003E
:1016900000000000A4160000000000000000000090
:1016A000000000000800000000000000240000000E
:1016B0000000000000000000C8160000000000004C
:1016C0000000000000000000080000000000000012
:1016D0000A000000180000000000000000000000E8
:1016E000E41600000800000000000000855900001A
:1016F0003400000000000000000000001C17000083
:1017000000000000000000000100000000000000D8
:1017100001000000000000000000000008000000C0
:1017200000000000180000000000000000000000A1
:101730003417000008000000000000002400000032
:10174000000000000000000058170000000000002A
:101750000100000000000000080000000000000080
:1017600028000000000000000000000080170000BA
:101770000000000000000000FFFFFFFF000000006D
:1017800008000000000000003C0000000000000015
:1017900000000000BC170000000000000000000076
:1017A0000100000000000000000000000000000038
:1017B0000000000001000000000000000800000020
:1017C000000000007D73030025DD0210859C0300EE
:1017D00075DF0210010000000000000000000000A2
:1017E000000001000000010015F9021001E60210DE
:1017F0002DDA021045E7021041D10210C9D30210C0
:10180000A5DF02102DE4021061EA0210DD9E030044
:10181000050006000800090016000201020203028A
:10182000000301030105020500060106040B14066E
:101830001506170600070107020703070009040938
:1018400007000A000C000D000E000F001000110030
:101850001200130014001B0000010101000201022C
:101860000204000401040304040405040604000542
:10187000020603060406050606060706080609060C
:101880000A060B060C060D060E060F0610061106BC
:101890001206130604070009000B010B020B030BD1
:1018A00053554E004D4F4E0054554500574544008A
:1018B000544855004652490053415400464F4F008A
:1018C0004A414E00464542004D41520041505200AF
:1018D0004D4159004A554E004A554C00415547006C
:1018E000534550004F4354004E4F5600444543006B
:1018F000BC180000C0180000C4180000C818000080
:10190000CC180000D0180000D4180000D81800002F
:10191000DC180000E0180000E4180000E8180000DF
:10192000EC1800000097B92EE5725CCB5DCAE47339
:10193000B82F0196BA2D03945FC8E671E7705EC9AF
:101940000295BB2CE3745ACD0691BF28BE2907909F
:101950005BCCE27559CEE077BC2B05920493BD2A8F
:10196000E17658CF51C6E87FB4230D9A0C9BB5227F
:10197000E97E50C7EB7C52C50E99B720B6210F986F
:1019800053C4EA7DB2250B9C57C0EE79EF7856C15F
:101990000A9DB324089FB126ED7A54C355C2EC7B4F
:1019A000B027099EA2351B8C47D0FE69FF6846D13F
:1019B0001A8DA334188FA136FD6A44D345D2FC6B2F
:1019C000A037198E41D6F86FA4331D8A1C8BA5321F
:1019D000F96E40D7FB6C42D51E89A730A6311F880F
:1019E00043D4FA6DF3644ADD1681AF38AE391780FF
:1019F0004BDCF26549DEF067AC3B15821483AD3AEF
:101A0000F16648DF1087A93EF5624CDB4DDAF463DE
:101A1000A83F1186AA3D13844FD8F661F7604ED9CE
:101A20001285AB3C51001000000000550010000072
:101A30000000670018000000006F001800000000A0
:101A400004004200000000430023000000000000EA
:101A5000A8870020987F00207086002078800020D2
:101A6000000000000C840020B08700206C8400205F
:101A700080860020A4810020042E00003C2E00005F
:101A80004C2E0000582E0000682E0000908600208A
:101A9000988800209C880020A08800200031002029
:101AA000A4880020A8880020AC880020B0880020EE
:101AB000B4880020A08600200C80002084850020AF
:101AC000D0810020782E0000EC2E0000602F000056
:101AD000D42F000048300000BC300000D43000009B
:101AE000E0300000E4890020348700200431002029
:101AF0008884002008830020E5890020E6890020F2
:101B00004481002098850020947B0020E7890020F4
:101B1000F02000007821000000000000000000001C
:101B2000EC30000038790020B8880020BC88002004
:101B3000183100201C310020C0880020FC3000003B
:101B400008850020C87C0020000000000000000084
:101B5000DC1B00200000000000000000000000006E
:101B600000000000AC80002060730020EC870020A3
:101B7000014A031049480310D549031015470310C3
:101B80008F8903005D49031081470310A1460310AC
:101B90009548031045450310254A031021440310BE
:101BA000ED47031099490310E14803102149031040
:101BB0005553031089520310CD5203106550031082
:101BC0008D4E0310297F03001380030091820300D0
:101BD0000000000059510310ED5003103184030040
:101BE000CD4B03102952031011530310A9550310B4
:101BF0007555031069530310DD5503103555031057
:101C0000E391030021540310855C03100D5603106B
:101C10004D5D0310A9640310B55B03106D570310ED
:101C2000E5610310095E0310C558031085600310B9
:101C300071610310B16203109963031055630310BF
:101C4000FD600310B15E0310AD880300D55A031088
:101C5000D559031009630310D963031019640310E5
:101C6000555F0310C56403104D62031071640310C7
:101C70008D64031055640310E1640310297503108B
:101C800079720310A16B0310F57203109D74031099
:101C9000797403102D74031061730310FD73031026
:101CA0005574031015750310D96C0310FD740310DF
:101CB000A98F0300E17403103D7503101191030017
:101CC000F9640310CD6803102D710310C174031063
:101CD000F56E0310B973031029670310056E031026
:101CE000C56F0310BD920300A1770310797D031027
:101CF0003D7E031049750310157E0310357D0310DA
:101D000099760310997C0310257B031071780310DA
:101D1000B57D0310ED7C0310857E03102D79031033
:101D2000B97A0310917B0310B1790310ED7B031096
:101D3000E97D0310617E0310357A0310D57E031010
:101D4000457C0310A57E0310BD7E0310E77D0300D4
:101D5000D9800310E97E031049830310898403109E
:101D60008D8103107D820310E58403102B84031002
:101D7000C583031091870310618803104588031001
:101D8000F1850310B18803107D880310C988031002
:101D90001D870310A186031001850310E18803103D
:101DA00099880310F98703107F8E0300359C031078
:101DB000819D0310E99A0310359B0310C19B03100A
:101DC000419A0310F18803101D8C0310618F0310DA
:101DD000F1940310919E0310C19E03103D9E0310C9
:101DE000699E0310259E0310619D03100D9E031034
:101DF000819B0310ED93031055990310C9970310AD
:101E0000D9980310BD950310959C0310C19D031034
:101E1000A59E03107D9E0310C9910310F18D030050
:101E2000699C0310DD9D031095900310FD9B03102A
:101E3000CD990310158E0310019D0310E19C031032
:101E4000219D0310419D0310BD9C0310F59D0310BF
:101E5000A19D031055980310E1920310999A031065
:101E6000B99E0310559E0310117C03005F7C030094
:101E700039A20310837C030069A1031075A203102B
:101E8000C59E0310B9A10310F9A1031015A10310F9
:101E90009DA2031071930300799303007B930300C9
:101EA000B9930300CD930300D393030031A903102A
:101EB000ADA20310C9860300B9A8031099A50310A9
:101EC000C381030039A803106DA90310D18003005A
:101ED0006DAC031099B1031009AF031059B1031091
:101EE00001B103109DA90310598A0300C5800300A6
:101EF000CD8003005D8A0300618A0300C98003006E
:101F0000658A0300698A03006D8A0300718A0300F1
:101F1000758A0300F1B9031075BA031081BB031071
:101F2000A9950300E1950300C196030061970300A2
:101F30004B980300899803000F9903003D99030013
:101F40009D990300D1990300F3990300119A0300AE
:101F5000739A0300BF9A0300C79A0300019B030012
:101F6000839B03009B9B0300259C0300A58003002B
:101F7000518A0300558A0300798A0300918C03007B
:101F8000E9C603104D8A03003D790300B17B0300CD
:101F9000CD36010067370100013701006F230300D0
:101FA000F1A20100AD7B0300A77C0300AB7C030022
:101FB000AD7C0300437D0300C14F0000D74F0000FC
:101FC000BD4F0000BF4F00008D4F0000B3C40300A1
:101FD000D17C0000F34A00001B4B0000654D00005F
:101FE000F94C0000274D0000F94D0000E54D0000C0
:101FF000DD4B0000394B0000254E00002F4C000047
:10200000DBFD0210457D020009590000A14E0000D1
:102010007F4F000005B800002BB800005DB800003D
:102020003FB8000068310020EB890020EC890020D7
:10203000EA890020ED890020EE8900206931002026
:1020400007AA0100ABBE01003D05020077AD01000B
:10205000E7AD0100990602000507020051AE01003C
:102060009FAD010053AD010013AE0100C904020091
:10207000C1040200F1920100C5920100F3130200B5
:1020800099040200FF0402000D0502001B05020076
:102090000F910100CF8E0100CD9101008B920100C4
:1020A000319503000B0602009D130200A9130200E4
:1020B0000000000091090200BF040200D1080200E4
:1020C00063090200000000007BAA010039BB010087
:1020D00007C20100FD9001000000000000000000A8
:1020E000C1C601003503020095910100B51302003D
:1020F000360001000600000000000000000F000094
:1021000000000000000000000000000000000300CC
:10211000FFFF00000403FFFF0000FFFF0F00E803C4
:102120000005401F0310000100000000FF3F0F00EA
:102130000800050B00000000000000000300010F74
:10214000000000000000000000000000000000008F
:10215000000000000000000000000000000000007F
:10216000000000000000000000000000000000006F
:10217000AD00000200000000000136360101000140
:102180000201000103010001040106060804000029
:102190000C0100340D01000F10040101140100FFB7
:1021A0001608000020020000220100FF23010001A8
:1021B000240100FE2501000826020000280100017C
:1021C000290100012A0200002C01000F2E0200004C
:1021D0003001000131010008320200FF3401000724
:1021E000350102FF3601000037010001380100010E
:1021F000390100FF3A01000F3C0200FF3E01010FD0
:102200003F0100014001041F41010001420100FFA4
:1022100043010080440800004E0100084F01000FF8
:1022200050010001510100FF520100005301000064
:1022300054010001580400005C0400006004000028
:1022400064040000680400006C04000070040000D6
:1022500074040000780400007C040000800100FF8A
:102260008101000182010001830102028401000159
:1022700043F30100F5F5010000000000000000003C
:1022800000000000C5FB0100E3FB010029FB010089
:10229000FDFB01002DFC010033FC010009FE0100E3
:1022A00000000000FFFD010019FF010047F70100D9
:1022B00039FC010059FC0100E9FC010095FF010017
:1022C000CFF7010099010200750102000000000033
:1022D00015020200B5F70100BD000200318B0100BC
:1022E0004F8A01008B8B01003D8A01005D8A01004D
:1022F000F38C0100F78C0100FB9501003D95010076
:10230000759601001D9501002F950100CB960100E7
:10231000CF960100F1770000FD770000902C00209F
:10232000402C0020C4290000DC290000F429000012
:10233000081400000C2A00002C2A000000000000F5
:102340005054564F5349474E31008CA800000000AE
:1023500000000000000000000083000000000000FA
:10236000000000000000000000000000000000006D
:10237000000000000089050000780C00000000004B
:10238000000000000000000001000000000000004C
:102390000000000000000000030000010305070921
:1023A0000B0D0F00020406080A0C0DBFFB07435378
:1023B000524C6162732020202020202020200870B1
:1023C0007A656D30303474202020202020202000B9
:1023D00020202020202020202020202020202020FD
:1023E0000A323032332D30322D30380100000000F7
:1023F0000003F800000000000000000000000000E2
:1024000000000000000000000000000000000000CC
:1024100000000000000000000000000000000000BC
:1024200000000000000000000000000000000000AC
:10243000000000000000000000000000000000009C
:10244000000000000000000000000000000000008C
:10245000000000000000000000000000000000007C
:10246000000000000000000000000000000000006C
:10247000000000000000000000000000000000005C
:10248000000000000000000000000000000000004C
:10249000000000000000000000000000000000003C
:1024A000000000000000000000000000000000002C
:1024B000000000000000000000000000000000001C
:1024C000000000000000000000000000000000000C
:1024D00000000000000000000000000008000000F4
:1024E00000000000000000000000000000000000EC
:1024F00000000000000000000000000000000000DC
:102500005054564F5349474E32000000025768005E
:1025100002487A0002706600026C78000370706DE9
:10252000056D63706D300000056E63706D300000E6
:10253000057073697A650000034552525054564F36
:102540005349474E33BFFB080008022320F43E7670
:102550002B09FFFFFFFF000000000000000000004B
:1025600000005054564F5349474E34004F414420C9
:102570004E564D3100000000000000000000000039
:10258000000000000000000000000000000000004B
:10259000000000000000000000000000000000003B
:1025A0000000000000000000000020015230010087
:1025B0000000000001002001523001000000000076
:1025C0000200200153300100000000000300200140
:1025D00063B800000000000004004201AD230000C9
:1025E0000000000005004201BE23000000000000C2
:1025F00006004201E0230000000000000700200167
:10260000EB2300000000000010004201CF23000077
:102610000000000011002001BB8900200000000024
:1026200000404201E02300000300000000002103FD
:102630009289002006000000000010110000000038
:102640000700000000003033000000000700000019
:10265000100030330000000007000000014020336C
:1026600000000000070000000240203300000000CE
:102670000800000000002033000000000A000000F5
:102680000000E233000000000A00000001001833DF
:10269000000000000C00000055003933000000006D
:1026A0000C0000001C00423300000000110000007C
:1026B00004004233000000001100000043002333F7
:1026C0000000000011000000510010110000000087
:1026D0001100000055001011000000001100000062
:1026E0006700181100000000110000006F001811B1
:1026F0000000000012000000550020010000000052
:10270000140000000E00422200000000190000002A
:102710000000F081FC280020190000000100238146
:10272000042900201900000002002301E087002096
:102730001900000003002181283100201900000049
:1027400004002381082900201900000005002181D0
:102750002A3100201900000006003081B9890020CC
:1027600019000000070021018E89002019000000D7
:10277000080021018C890020190000000900218136
:102780008A89002019000000FDFF2181AE41000070
:10279000050B000001002102000000000A000000FB
:1027A000020000000400000008000000100000000B
:1027B0002000000040000000800000000001000038
:1027C00000020000000400000008000000100000EB
:1027D0000020000000400000E8030000D0D1D2D368
:1027E000D4D5D6D7D8D9DADBDCDDDEDF5A6967424B
:1027F0006565416C6C69616E6365303980310000DC
:1028000070850020B82A00208031000072850020E9
:10281000C42A00208031000074850020D02A0020C6
:102820008031000076850020DC2A00208031000005
:1028300078850020E82A0020803100007A85002079
:10284000F42A0020803100007C850020002B00202D
:10285000803100007E8500200C2B0020803100009C
:1028600080850020182B0020F08400205F8A020061
:10287000FC810020DA8D0200000002400929FF00DF
:102880008C83002078280000002005000040000014
:102890009C310000BE89002088280000C43100005F
:1028A00010870020342B0020EC310000107800202D
:1028B0005C2B0020EC310000307800205E2B0020E3
:1028C000EC31000050780020602B0020EC3100003B
:1028D00070780020622B0020EC31000090780020FE
:1028E000642B0020000000008D680000015F0000E4
:1028F0000101010000000000FF00010000000000D5
:1029000000000000103200004C150020682B002051
:10291000103200004C160020A82B0020FF00000001
:102920000000000080A90300C07900201C290000DD
:10293000706A0020E82B002000000840E803000037
:1029400028320000248200203829000000000140C5
:102950001FFF0000170000000010014021FF0100D0
:10296000190000000020014023FF02001B000000AE
:102970000030014025FF03001D0000000000014061
:1029800020FF000018000000606C00204C290000AF
:1029900000000000AC6C002058290000000000007E
:1029A000F86C00206429000000000000446D002045
:1029B0007029000000000000906D00207C290000BC
:1029C00001000000020800000000000000000000FC
:1029D0000001010000005328A02C00200308000083
:1029E0000000000000000000000165090000000078
:1029F00000000000012C00000000000000000000AA
:102A00000001001E0000000000000000022C000079
:102A100000000000000000000000000000000000B6
:102A2000000000000000000000000000032C000077
:102A30000000000000000000000000000000000096
:102A40000000000000000000000000000000000086
:102A5000000000000100000000C2010003000000AF
:102A6000000000004F070100E50B01009307010083
:102A7000E944000041080100C30C010041080100C5
:102A80001B0E010043080100E94400004108010059
:102A9000C30C0100A7080100E94400000000000089
:102AA00000000000E1090100E9440000000000000E
:102AB000000000002D0A0100E9440000D90A0100CD
:102AC000E9440000DD0A01001D100100F90A0100BF
:102AD000E9440000000000000000000000000000C9
:102AE0000000000000000000000000003B0B01009F
:102AF00071110100510B0100E94400003B0B010082
:102B000071110100510B0100E9440000DD0A0100D0
:102B10001D100100810B0100E944000013000000BA
:102B2000A1D80000000000001B1D010001000000F2
:102B30001B1D010002000000EBCE0000028000001F
:102B4000E9CE00000300000009CF000004000000EF
:102B50004FCF000004800000A7CF00000500000058
:102B6000A9CF00000600000021D0000030000000C6
:102B7000ABD5000031000000ADD3000033000000F1
:102B800065D60000340000000BD7000011000000E3
:102B9000ADD700001400000009D8000015000000A7
:102BA0007DD30000FFFF0000000000008F00010047
:102BB0005F310020870001005D31002035002800D2
:102BC0007482002028000100423100202900010009
:102BD00043310020840004001C880020860001008E
:102BE0007D1B00202A000100443100202B00010041
:102BF000453100202C000100493100202D00080043
:102C0000842D00202E0001004A3100202F000100F9
:102C10004B310020300001004C3100203200010017
:102C2000C789002033000100C8890020340001005A
:102C30004D31002036000100C98900203800010014
:102C40004E3100203900010048310020830002008D
:102C50003831002063000100CD89002065000100AB
:102C6000463100206D000100CE890020710008006F
:102C700080870020660001005C31002043000100D5
:102C800057310020440002002E3100204500010091
:102C90005831002046000200303100204700080073
:102CA0008887002048000100593100204B000100B6
:102CB0005A310020040001005E310020A100010013
:102CC00064310020370001006331002088000100DA
:102CD000603100203C0001004F3100203D00010028
:102CE000503100204900020032310020670001000D
:102CF000CF8900204D000200343100204E00010039
:102D00005B3100204F000200363100203E00010000
:102D10005531002051000100CA89002052000100F5
:102D200052310020530001005431002054000100B2
:102D3000CB89002000000000000000007B7374615C
:102D40007469632D696E7374616E63652D6E616D58
:102D5000657D00007B656D7074792D696E7374619B
:102D60006E63652D6E616D657D000000342E002060
:102D7000FFFFFFFFFFFFFFFF0A000000A75C01004D
:102D800002000000A35701000500000041590100A6
:102D900007000000B35801000C0000007B52010046
:102DA0000D00000099540100FF0000000000000029
:102DB0008E0000008E0001008E0002008E000300D5
:102DC0008F0000018F0000028F0000038E000104BD
:102DD0008E0000058E0008048E00000489000006A5
:102DE000500000007F0001003F0004003F0002008F
:102DF0003F0001007F0002008E0002048E000102ED
:102E00008E0001010000000002000000020000002E
:102E10000A000000020000000200010000000000A3
:102E200000000000000000000000000000000000A2
:102E300000000000000000000E00000000A6AAAC88
:102E4000A4A9A9A399B19ABCB6A8000002040201E2
:102E50000101010902000000313117191A21241B58
:102E60001D1F313133310000313118191A22311C44
:102E70001E20313134310000030071003001600048
:102E80001100700031022003500480000700100080
:102E900061000000140063007300720062004300D0
:102EA00000001300060000000000040012000000F3
:102EB00000000000000004000400370037003C025E
:102EC0004400000000000000000065000000350024
:102ED0008100000005000000830000006600000083
:102EE0000000080009000A000B0000000101710148
:102EF0000101010111010101310101010101800103
:102F00000001100161013B001400630173017201B3
:102F1000620143010001130106013D013500040176
:102F2000120100010001000100010401040133014C
:102F300033013C014401320136000001000165010A
:102F400000013500810100010501820183010001BA
:102F5000660100010001080109010A010B010000DE
:102F600003027102300160021102700201020202CA
:102F7000020280020002100261023A004100630274
:102F8000730272026202430200021302380000025E
:102F90000002040212020002000200020002040207
:102FA0000402370037003C024402000239000002EC
:102FB000000265020002350281020002050282025F
:102FC00083020002660200020002080209020A02ED
:102FD0000B0200000103710301030103010301035C
:102FE0000103220302030103000310030003000393
:102FF0000003000300030003000342030003240353
:10300000060300030003040312032503230325031F
:103010002303040304030003000300034403000329
:10302000000323030003650321003503810300032C
:103030000503000300030003000325032303080323
:1030400009030A030B030000030471040204600473
:1030500011047004020402040104020400041004B8
:1030600061040004140463047304720462044304DE
:103070000004130406040004000404041204000401
:10308000000400040004510464000004000400046F
:103090004404000400040004000465040004350432
:1030A0008104640005040004830400046604000431
:1030B0000004080409040A040B04000000000500D1
:1030C000BD00B700B100BC001C0030003800080093
:1030D00038010200000120181A18182C34041E00B0
:1030E0000C0E020B040B0A070800110F88B2240013
:1030F000881300001000000000000001C003000061
:1031000080070000000F0000001E0000003C0000CF
:103110000078000000F0000000E0010000C00300A3
:103120000080070000000F0000001E0000003C00AF
:10313000000078000000F0000000F0000000000037
:10314000000000000000000000000000000000007F
:10315000000000000000000000000000000000006F
:103160000000000000BE040A00BE02083031323305
:1031700034353637383961626364656600000000B3
:10318000B99F0300F19F0300F79F0300D3A0030042
:10319000BFA1030019A2030021A20300BDA20300E6
:1031A000C5A20300CBA20300FBA2030015A30300EA
:1031B00063A303007BA30300EFA303002DA403007C
:1031C00035A40300C5A6030059A70300CFA7030039
:1031D000FFA7030011A8030047A803005FA803008E
:1031E00085A90300C9A90300D5A903000DB20300F6
:1031F00027B203005DAF03005FAF03005DB00300C3
:1032000005B00300A1B00300EDB10300D1B103008C
:1032100055B50300CBB50300BFB80300C9B8030020
:10322000A1BA0300C1BD0300F9C1030001C203003C
:1032300003C2030009C2030011C20300A1C20300BC
:10324000C9C203005D400021894000219540002152
:103250003B410021074C657900F009F8617969402C
:10326000490703D50121044A8903116070BD70B577
:103270000249084780030021081104402D5900002D
:1032800000F00AF800480047577F000000F00AF8F5
:10329000004800471B880000806B0C490007000FA6
:1032A00048717047094A0A4918235079CB56497E1C
:1032B000C018814201DD084602E00F2800DD0F2022
:1032C000D189090909010143D1817047E002002138
:1032D000880000210122274B02212548184710B5FC
:1032E000254880472548406A00280DD124490A20F6
:1032F0000856002809DA401C07D008462038406AE2
:103300002049884200D1804710BDFFF7E3FF10BD80
:1033100000211E4B1C4A0846184701201C49400248
:1033200008601C48FB220178114001701248EC38FB
:10333000004710B51849884711492039012807D09E
:10334000020404D50020088514484862012010BDFD
:103350004A6A094BEC3B9A4201D1114A05E0074900
:103360004A6A104B9A42F2D10F4A4A6210BD0000DD
:10337000060800009F060000A1920200080100213B
:103380005401002163920200E7400021B5B402001D
:1033900080E100E080030021F7960200DD4000217B
:1033A0002341002169950200194100210102000317
:1033B000020001032200000000002115110E0D0C77
:1033C0000B0B0A0A0909090909080808080808086E
:1033D0000707070707070707070707070700000092
:1033E000303132333435363738396162636465667B
:1033F0006768696A6B6C6D6E6F70717273747576E5
:103400007778797A000000007CB505468020EE7858
:1034100000F082FA002100910A240321304600F0D6
:10342000ACFA00990818641E0090F6D100980A21A1
:10343000B0FBF1F1687A698140F0040068726A4675
:10344000688900900421687800F053FC73BD000087
:103450002DE9F04704462DED028B257805F07F0518
:103460000E2D7BD1607A010710D5DFF81824118862
:103470000009C140CB0709D4DFF80C14085C28B15F
:103480002046FFF7C1FF9FED910AB8E0B4F80C9019
:1034900094F80380802000F03FFA607A470807F034
:1034A000010787F0010700250026BF02400748BF3B
:1034B000B4F90A7094F80EC000EE10CAB8EE400AD3
:1034C00010EE100A00F01AFCDFF8C023DFF8C0335A
:1034D00000F038FC00F00CFD08EE100A00F093F844
:1034E00000F091F800F06BFD824612E0381A00B24D
:1034F00000280BD5404200B208E000F084F8617A61
:103500008A0700B2F2D5B842B8BF002010FB0055C0
:10351000761C00F054FDA0EB0A004845EDD3002EC8
:103520009FED6A0A6BD0B5FBF6F000F083FD41EC2D
:10353000100B00F08DFD53EC102B4FF06630DFF8D0
:10354000541300F0FFFB04460D4618EE100A00F07D
:10355000D5FB02460B462046294631E0E678032D8E
:103560001CBF042D012D01D1002000E0802000F0BF
:10357000D3F90F2D14BF012200220321304600F0A1
:10358000CCF90F2D04D100EE100AB8EE400A36E057
:1035900000F0E0FD41EC180B00F0EEFD00F0DAFD6C
:1035A000032D0FD0042D12D153EC182BBA48BB4970
:1035B00000F0C8FB00F0E0FD00F0CCFD0022B84BAD
:1035C00000F0F6FD00F094FC00EE100A17E0002277
:1035D000B44B00F0EDFD00F08BFC00EE100A012D65
:1035E00018BF022D0BD1607AC10708D56069D0EDF4
:1035F000000AB0EE401A90ED010A01EE200ABDEC7F
:10360000028BBDE8F0870321404600F0B6B93EB515
:103610000C2A014634D12C20069AA34D4143681848
:10362000022A02D1FFF7F0FE28E0012A01D014009F
:1036300026D1079C552B0AD102B3FFF709FF8DED68
:10364000000A04226946204600F06DFF16E01C2B9C
:1036500016D108980223038082B1012020705622DF
:103660006270685C00F07F01032908BF432004D02A
:1036700000F07F000E2801D14120607001203EBD86
:1036800000203EBD70B50546012000F09DFA040003
:1036900001D1002070BD2C204543834E7019FFF7E7
:1036A000D7FE01202072562184ED010A6172705DFF
:1036B00000F07F02032A08BF432004D000F07F00FF
:1036C0000E2801D141206072204670BD000000002C
:1036D0002DE9FE430D4680467449754F11F8089058
:1036E000484600F0F1F8064600F0F7F8002000F038
:1036F00013F9387800F044F904466E4860620121FD
:1037000084F8281000206061032D08BF092602D02C
:10371000042D08BF082600F0A380032084F82800A9
:103720000421484600F0E2FF0C2010FB06F062493D
:1037300001F80090012D03D10844604B43606AE01A
:103740000E2D66D15E4800906A460121404600F089
:10375000DBF9009A3620002102F0FF020A2A1BD86A
:10376000DFE802F006081A0A0C0E101214161800F0
:10377000B92011E064200FE020200DE030200AE0A5
:10378000102009E0202006E00B2005E0172002E0D1
:10379000082001E010200121A073607A00F0FD00F4
:1037A00040EA410060720098000A0090010614BFD0
:1037B0003C20322020724FF47A70217A90FBF1F194
:1037C000A1816A460221404600F09EF900281CBFF4
:1037D000009800280AD0607A40F00800607200F07B
:1037E0000F0000994A1E40EA02106072002000900B
:1037F0006A460421404600F06FFA88B3009961815F
:10380000009800B10420617A01F0FB010843607266
:1038100026E0022D24D10021009101916A46012168
:10382000404600F09FF901AA0221404600F09AF9B3
:103830009DED000AB5EE400AF1EE10FA10D0607A64
:1038400040F001006072082001F0B8FB6061B8B17F
:10385000082101F013FC606900990160019A42603F
:1038600084F8018084F80290E6700021207865F3E6
:1038700006002070A1711348E0613978491C397045
:10388000BDE8F783868900204923000038842A3563
:103890007BA0453F66665A3F9A9999999999B93F95
:1038A0000000594000408F40446F00206087002096
:1038B000B78900200F360000B82A0020308C110094
:1038C0000132E60085360000A0F11701082902D276
:1038D0001738C0B27047FF2070470C480178CA07FC
:1038E00000D5704710B541F0010101700020084972
:1038F00005E0C3B20C246343FF22CA54401C054BAD
:103900001C78C2B2A242F4D310BD0000BD890020D1
:10391000B82A00205E8A020070473EB50928044696
:10392000154605D101F075FC01F0A2FC80B23EBD48
:1039300001F005FD01A801F03DFD01A9204601F0BF
:1039400019FD040001D100203EBD694601F0F1FCE3
:1039500008B1002009E055B1BDF80010204601F083
:10396000EBFC4FF47A71B0FBF1F0ADF800002046AB
:1039700001F0DCFCBDF800003EBD0022CDE70143B4
:1039800070B504462C214C43BE4D2E19304601F033
:1039900075FB2A5D42F080022A55304670BDF0B5B5
:1039A000B94BBA4C1B5C245C024600E0491CB84D84
:1039B0002E78C8B2B04217D25FFA81FC2C25B14FE5
:1039C00015FB0CFC07EB0C052878C0090CD06878B7
:1039D000904202BF2F7807F07F079F4204BFA8786C
:1039E000A042E3D148B2F0BD4FF0FF30F0BDF0B5DA
:1039F0000346002400200EE0E4B266440E5507F0B2
:103A00000F076C1C0A2FACBF37263026EDB2F61913
:103A10004E55401CC0B29E79B042E5B212DAEF1C9E
:103A2000BA420FDB10B12D264E55641C1D182F7A9B
:103A3000C7F30316651C0A2EB4BF4FF0300C4FF0CD
:103A4000370CD9E7E0B290423CBF00204855E0B2C5
:103A5000F0BD10B500F00CF88E4C03E010B500F08E
:103A600007F88D4C81B22078BDE8104001F0ACBC65
:103A7000012303FA00F000F0FF0000EB0120704783
:103A800070B500F006F8844E00F00AF800B90FE0B7
:103A900070BD0446012000FA04F404F0FF047047EE
:103AA000307804EB0124A4B21546214601F0BCBCD9
:103AB00030782A462146BDE8704001F085BC0122DD
:103AC00002FA00F000F0FF0000EB0120714B07E06C
:103AD000012202FA00F000F0FF0000EB01206E4B23
:103AE00081B2187801F074BC012303FA01F101F0EE
:103AF000FF0101EB0221002819BF66480078664AE1
:103B0000107889B201F090BC1CB500F045F80CBFEC
:103B100002F1FC0102F1AC01052201F05DFD9DF80E
:103B20000000012816D002280FD0032807D004284F
:103B300010D0052809D0062818BF0B2810D10DF188
:103B4000010108682060012016BD0DF1010108681F
:103B500080B2F7E70DF10101086800F0FF00F1E71E
:103B6000002016BD1CB500F017F80CBF02F1FC01D7
:103B700002F1AC01052201F02FFD9DF8000007289D
:103B800008D10DF10100016800EE101A84ED000A61
:103B9000012016BD002016BD1446404A00EB8000EF
:103BA00002440229684670470A78521C001D01F041
:103BB000FBB9BDEEC00A10EE100A3949884201D1A6
:103BC000012070470020704770B510260228054676
:103BD00003DB0C2110FB01F6361D304601F0EEF937
:103BE000040003D0314601F049FA2570204670BD2B
:103BF000420602D5491E8941C90F00F034BD2C226E
:103C0000204B504318440079002818BFFFF7F0BF3D
:103C1000704738B500241E4D03E00021FFF7EFFF89
:103C2000641C2978E0B28842F7D331BD70B52C26E8
:103C300006E0D5B2134C75432C44521C20716171BF
:103C4000D4B29C42F5D370BD70B52C220D4B044606
:103C5000191D54430C5D00E0401C0D4D2E78C1B27F
:103C6000B1420CD251435D18297900291CBFA978B3
:103C70000029F1D02979A142EED1012070BD0020A8
:103C800070BD0000446F002058870020608700202E
:103C9000B78900207F2800208028002040230000D2
:103CA00019FCFFFFC000103070477CB5C000103019
:103CB000461814461D463146102001F0EAFC48B96A
:103CC0000095234600223146102001F047FD08B937
:103CD000012076BD002076BD13460A460021E4E7A8
:103CE000C00080B510304118102001F015FD0120F2
:103CF00002BD13460A460021F2E70156C0F3C75140
:103D000081B1FF2906D0C110400721F0E04101F147
:103D10006051704741020CBF40F4E0016FF0004178
:103D20000020704700F0004100020AD0B0FA80FC89
:103D300000FA0CF001F16051A1EB0C5101EBD02124
:103D40004005704730B540F2FF7C1CEA11541DBF9E
:103D50001CEA1355644565453FE0641981EA030C8C
:103D60006FF35F530CF0004C43F48013C90241F031
:103D7000004141EA505EC5021100A5FB0202002885
:103D80004FF00000EEFB01204FF00001E3FB0521A6
:103D900018BF42F00102401800214941E3FB0E0127
:103DA000A4F580640D0302D292184041494154F1B8
:103DB000010470DD450872F1004250F1000051EB42
:103DC0000451A1F5801102D441EA0C0130BD40F24A
:103DD000FF7E4CEA0E51002030BD0CEA13556445BD
:103DE00018BF654581EA030C0CF0004C41D050EA45
:103DF000410E1CBF52EA430E02E06146002030BD76
:103E000024422C441BD15FEA050EF6D0090302BF01
:103E100001460020AEF1140EB1FA81F5AEEB0504B7
:103E200001FA05FE0C35C5F1200100FA05F5C84080
:103E30004EEA000E6FF35F5343F480139CE733F0B8
:103E40000043B3FA83F504BFB2FA82FE75440B3D1A
:103E5000641BB5F1200E2FBF02FA0EF3AB40C5F183
:103E6000200E22FA0EFE38BF43EA0E03AA40641C5D
:103E70007CE750EA410E14BF52EA430E6FF0000196
:103E80004FF4001515EB430F8EBF194615EB410F8C
:103E90009DE7B4D830BDD4F10104B4F120050FDAA8
:103EA000C4F12005520828BF42F0010210FA05FEB5
:103EB00001FA05F57244E2BFE0402843E1400FE01B
:103EC000352C9ADCC5F1200452EA400220FA05F2B2
:103ED00018BF42F0010231FA05F0A1400A43002167
:103EE00072F1004250F1000051EB0C0130BD014174
:103EF00001F000428B1AA3F16051B1F5801F0ADB7B
:103F0000B1F17F6F1FD242EAC102C10071F10041DD
:103F100042EB507070470B15C3F10903212B10D2EF
:103F2000890241EA905180020128494141F0004153
:103F300021FA03F0C3F12003994071F1004150418F
:103F40007047100070476FF0000013EB103F5CBF2C
:103F5000000E42EAC0507047DFF800F0DBFD0210AF
:103F600038B50446FFF7F8FF002504E0615D225CE8
:103F7000625521546D1C401E8542F7DB31BD38B5BA
:103F8000020048BF524200230A2500F00EF8002A22
:103F9000FBDCFFE7002802D52D22CA545B1C002061
:103FA000C8540846BDE83240DAE70A2492FBF4F42C
:103FB00005FB14223032CA545B1C2246704710B5F0
:103FC00001F0A2FC4FF47A71B0FBF1F401F099FC1E
:103FD000604310BD38B5044600F0F2FF05460E48B8
:103FE0000178220008D10A0710D441F008010170BD
:103FF000022001F0EFFD09E0012C07D10A0705D5E9
:1040000001F0F7010170022001F079FD2846BDE8BA
:10401000324000F0E0BF0000BD890020E0B56846F6
:1040200000F02EFD0198B0F5803F28BF4FF6FF70DD
:1040300080B20EBD50B1B0FA80F18840C91CC1F504
:104040008461090501EBD0214005704701467047A6
:1040500051EC100B00B500F003F841EC100B00BD63
:1040600040F2FF7C0B0D4DD0634566D230B421EA9F
:10407000035141F4801103F2FD3C5FEA5C0C01D373
:1040800000184941890041EA907180004FF44014C2
:104090000023E202D50AB1F5100107D46D081DD244
:1040A000091B641900184941491BF7D56D080AD24C
:1040B0000919641B00184941491BEFD56D08F7D356
:1040C00001E0520817D0C01861419B1AAC4100189A
:1040D0004941801AA941F4D452080AD0C01AA1411A
:1040E0009B186C4100184941801AA941E9D4520833
:1040F000F4D15B1C6C4161084FEA330001EB0C51B9
:1041000030BC704750EA0103FBD030B4B1FA81F300
:1041100011B9B0FA80F41B190B3BB3F120042FBF87
:1041200000FA04F19940C3F1200420FA04F438BFE6
:1041300021439840D3F101039DE7634514BF50EA42
:10414000410CDEE711F5801FDBD8D94302F04CB8F3
:104150007047015710F0004160B148BF4042B0FACB
:1041600080F29040D21CC2F5846241EA025202EB16
:10417000D021400570470125C1F30A5340F21E4289
:10418000D31A0CDDCA0283F3070342EA505242F00D
:104190000042DA4002EBE17282EAE17070476FEAB6
:1041A000E17203F2E13008B182F000407047010093
:1041B000F0B540F2FF7581EA030C0CF0004C15EAF3
:1041C00011541DBF15EA1357AC42AF42E5E0BC41A4
:1041D000C1F31301C3F31303801A994143F480130D
:1041E00004D2641E0018494180185941C90241EAAD
:1041F0005051B1FBF3F603FB1611A2FB0675D7EB8A
:10420000C020A94102D2761E80185941C90241EA54
:104210005051B1FBF3FE03FB1E11A2FB0E75D7EB51
:10422000C020A94103D2AEF1010E80185941890284
:1042300041EA9051760546EA8E2EB1FBF3F603FB78
:104240001611A2FB0675D7EB8020A94102D2761E7B
:1042500080185941C90241EA50514EEA060EB1FB9D
:10426000F3F603FB1611A2FB0675D7EBC020A9419C
:1042700002D2761E80185941C90241EA5051B1FB61
:10428000F3F703FB1711A2FB0735D3EBC020A941BD
:1042900067F100070CBF004247F0010766F3D5271E
:1042A0004FEA1E31B80814F5806412DDBD0775F1C0
:1042B000004250EB0E5051EB045111F5801F5CBFD2
:1042C00041EA0C01F0BD4CF07F6141F0E04100207B
:1042D000F0BDBD076D0840EA0E5041F48011D4F1E5
:1042E0000104B4F120060ADAC4F120060200E0401D
:1042F00001FA06F3E1401843B24015430EE0342CB6
:1043000013DCC6F1200445EA40056D0820FA06F2E8
:10431000154321FA06F0A1400D43002175F100423A
:1043200050F1000051EB0C01F0BD00205FEA0C01E0
:10433000F0BDCFB992185B41B3FA83F704BFB2FA6C
:1043400082F6BF190B3FB7F120062FBF02FA06F322
:10435000BB40C7F1200622FA06F638BF3343BA4005
:104360001CB1E419641E33E77F4231F00041B1FA19
:1043700081F404BFB0FA80F6A4190B3CB4F1200616
:104380002FBF00FA06F1A140C4F1200620FA06F67C
:1043900038BF3143A0403C1B1AE7AC421ABF05EAC4
:1043A0001357AF4212E050EA41061CBF52EA4306DF
:1043B000BFE750EA4107304661461CBF41EA05515C
:1043C000F0BD52EA430C08BFC143F0BD00204FF4DA
:1043D000001616EB410F98BF16EB430F08BF16EB04
:1043E000410F24BFC14305E016EB430F0CBF6146EC
:1043F0004CEA0551F0BDE803F8B50D4688B0044617
:10440000287800F0BAF800283ED1DFF83C220021DD
:10441000131D53F8310018B1491C0829F9DB33E0AA
:1044200005A800230026002780E8C80002F83140D4
:10443000121D42F8315028788DF80000A868418894
:10444000ADF802108188ADF80410807900F00F00FB
:104450008DF80600A868C1798DF80710A8688168F2
:104460000291007B8DF80C00A8680169049105A9F0
:1044700028788DF814008DF81C30CDF818D020461F
:1044800001F038FF012000E0002009B0F0BDDFF8A6
:10449000BC11086070472DE9F041DFF8B4512C6879
:1044A00080460F4600F069F8002630B90020BDE8CC
:1044B000F081206800B9264604462CB12079404599
:1044C000F7D1A7600120F2E70C2000F077FD00286B
:1044D000ECD00022026080F80480876029680029FF
:1044E00014BF30602860EDE710B559490A6800E054
:1044F000126852B1036811791C7DA142F8D191680C
:104500000029F5D0BDE810400847012010BD00F09B
:1045100055BD10B5044610460A460146204601F036
:104520006BFF204610BD03E011F8013B00F8013B92
:1045300013465A1E002BF7D17047002818BF00F011
:104540003EBD704701700A0A0B0C090E4270837061
:10455000C170001D704700223B4B03EBC20149684C
:1045600011B10978884203D0521C082AF5DB02E019
:1045700013F8320070470020704710B50146002242
:10458000314800EBC203586810B10478A14203D04F
:10459000521C082AF4DB00E010BD002010BDF0B56D
:1045A0008BB007460C4615461E462C21684601F086
:1045B00057FF397A8DF80010032906D108223946B1
:1045C0000DF1020000F0F0FC03E011B13988ADF804
:1045D0000210797A12988DF80A107989ADF80C10CA
:1045E000810744BF01228DF81C20C10644BF01226F
:1045F0008DF81D20010744BF01228DF81E20810681
:1046000044BF01228DF81F20410644BF01228DF8CE
:104610002020000644BF01218DF821101398119B22
:10462000109A27788DF822008DF81470ADF8165086
:104630000693ADF824600A922078FFF78CFF694654
:1046400001F05CFE0BB0F0BD1C7F00200088002054
:104650000488002001468748006801F01F01C84017
:1046600000F001007047012200F01F0012FA00F074
:1046700004D0814A09B11060704710617047F8B5E5
:10468000850005F0FC0505F1804505F501250E4680
:104690002F4600F06FF828D078490C4078490A6816
:1046A0001043086001F027FF002139706F1C220AB7
:1046B000A91C00F055F805F803CF24F4C04401F01C
:1046C0004BFF00F053F832001CBF032E042E02D122
:1046D00044F4C04408E0012E08BF44F4804403D0F1
:1046E000022E08BF44F400544BE0F1BDF8B586003B
:1046F00006F0FC0606F1804606F501260D46374613
:1047000000F038F82BD05E490A6822EA0000086001
:1047100044F0005401F0EFFE0021397044F002042F
:10472000771C220AB11C00F01BF806F803CF24F412
:10473000C04401F011FF00F019F82A001CBF032D3E
:10474000042D02D144F4C04408E0012D08BF44F414
:10475000804403D0022D08BF44F4005411E0F1BDA1
:104760003A70230C0B704FEA146C704745490220D5
:1047700008607047012100F01F003C6811FA00F04A
:10478000704701F0B8FE240A3C70BDE8F24001F029
:10479000E3BE70B500F02AF82546012200F01F00A4
:1047A0002E6802FA00F0C243F8B1354B29B11A68FD
:1047B000324910430E40186006E0186846F0005673
:1047C000024046F002061A6001F095FE0021631CCB
:1047D0002970320AA11C1A70350C0D70360E04F8BF
:1047E000036F01F0B9FEFFF7C1FF70BD840004F054
:1047F000FC0404F1804404F501247047012200F018
:104800001F0012FA00F007D01B4A136C0343136415
:1048100009B11060704710617047000038B5FFF7AC
:10482000E5FF194B22681D7800F03F0085421FD339
:1048300022F4E025032945F4C02045F4A0230ED836
:10484000DFE801F00C0A050245F4E02507E002F478
:10485000E022B2F5C02F01D11D4600E0054601F06F
:104860004AFE621C290A11702D0C04F8025F0DE04B
:1048700031BD0000C020024090200240FDFFFFDF5C
:10488000D0200240E020026046AA0200BDE832408B
:1048900001F062BEF8B504460D46012600273442F9
:1048A00003D02946F8B2FFF7B9FF7F1C7600F8B2B3
:1048B0002028F4DBF1BD2000DFF800F0C5E2021093
:1048C000DFF800F0F5EA0210DFF800F0E7E9021087
:1048D000DFF800F09DEB0210DFF800F025DB02109E
:1048E000DFF800F0B1BF0210DFF800F021CD0210B8
:1048F000DFF800F0C3EC0210DFF800F0BBEC0210B0
:10490000DFF800F04DEA0210DFF800F045DF02109A
:10491000F8B542F20C74DFF810562E1930790128E0
:104920001DD02846002101E040F8041B42F210721D
:104930002A449042F8D3E8212960002042F2246200
:10494000DFF8E8753060C5F8E82005F1E801796026
:1049500000F006F8B8607D60FC6001203071F1BDA8
:10496000F8B500260027051D15F003001CBF291D02
:104970000D1A00F025FB0146DFF8B025112D34BFDC
:10498000546894682068002803D580F00040002710
:104990001AE03B0014D03368D4F800C06344AB4243
:1049A000336011D334461846ECB1401B042811D3B0
:1049B000605145F000402060D3685D1BD56011E078
:1049C000A842F1D201272646044420680028DAD103
:1049D000002408E0D36820681B1AD360256845F0DE
:1049E00000452560241D11600846F3E038B5040039
:1049F00019D0DFF8385500F0E3FA286054F8041CA9
:104A0000002903D42969491C29610BE021F00041E8
:104A100044F8041CEA688918E960211F6A68914219
:104A200038BF69607CE131BD2DE9F04100F0C8FA82
:104A3000DFF8F8249368002400250026002709E009
:104A40000E4601251C4604E011D581F000410025E9
:104A500047460B441968B046BE4238BFB8460029E5
:104A6000F2D1106000F0B7FA4046BDE8F081002DA9
:104A7000E6D0D4F800C08C44C4F800C08E19E8E732
:104A800010B5044642F21070DFF8A0142060CA6826
:104A90006260FFF7C9FF09282CBF08380020A0601A
:104AA00010BD80B5FFF734FF4BF6BE2002BD0846AF
:104AB00056E708469AE702B56846FFF7E1FF01BDF1
:104AC00001207047F0B5DFF8684425782E460F2E98
:104AD0000BDA1823DFF85C745E43BB1958600020C2
:104AE0001D70D960986018745A616D1C2570681E1D
:104AF000F0BD38B504460025200001D1002032BDAC
:104B000004F10C0000F05AFA28B10560FF2204817C
:104B1000827200F10C05284632BD80B508B9052027
:104B200002BD10F8021CFF2901D0042002BD0C3880
:104B300000F045FA002002BD2DE9F0410C000646C8
:104B400002D10520BDE8F0810020DFF8E85300E045
:104B5000401CDFF8DC231378C1B2994217D2C7B2E8
:104B600018214F43EA5DB242F2D100F029FA8046A3
:104B7000E8192146083000F0BFF84FF400413046F4
:104B800000F055F8404600F026FA0020DAE703204E
:104B9000D8E7F8B505460E4600F012FA00240021C9
:104BA000DFF8902300E0491CDFF884733F78CBB234
:104BB000BB420FD2182717FB03F3D75CAF42F2D1E9
:104BC000D1188C6801E054F80C4C002C1CBF2178E3
:104BD000B142F8D100F0FFF92046F2BD2DE9F843CB
:104BE00080464FF000090026DFF84843DFF84053C5
:104BF00016E000F01CF812E018225043215C4145F9
:104C00000DD1271807F1080000F0ACF88146B8680C
:104C100000284FF40041F0B2EBD100F046F8761CCA
:104C20002978F0B28842E7D34846BDE8F2832DE9FF
:104C3000F04781468A4603260025BD4C18E018211E
:104C4000BC48694347183A784A450FD100F0B8F993
:104C50008046786901684AEA01010160F86808B194
:104C6000FFF742FE404600F0B6F900266D1CEDB29B
:104C700020788542E3DB3046BDE8F08770B5044616
:104C80000025AB4E0DE01821AA486943084442684C
:104C9000A24204D1C0684FF0FF31FFF721FE6D1C26
:104CA000EDB230788542EEDB70BD2DE9F0418046F3
:104CB0000C4600279E4E04E02878404510D07F1C0B
:104CC000FFB23078874215DA18229A497A438D1854
:104CD000B8F1FF0FF0D1FFF7F3FD69688142EED123
:104CE00000F06EF969690A6822EA04040C60BDE804
:104CF000F04170E1BDE8F08138B505460C4600F0A2
:104D00005FF96CB1002144F80C1C2A6812B92C60C0
:104D100006E00A4652F80C1C0029FAD142F80C4C65
:104D2000BDE8324057E12DE9F84304460D46904670
:104D300000F046F9814620680027002628B100E0EF
:104D40007F1C50F80C0C0028FAD1474504D22946A4
:104D50002046FFF7D1FF0126484600F03CF93046D7
:104D6000BDE8F28338B5044600F02AF92168002531
:104D700041B10D46A5F10C0100230A682260FF2411
:104D80000B608C7200F027F9284632BDF8B5074653
:104D90000E4600F015F9002400250021654A00E0C8
:104DA000491C634B1B7899421BDA18234B4312F8BA
:104DB00003E0BE45F4D1D1188C6801E025461446C5
:104DC0007CB1237854F80C2CB342F7D1002D0CBFE2
:104DD0008A6045F80C2C0021FF2244F80C1C04F8D2
:104DE000022CF7E638B504460D4600F0E9F82168D4
:104DF00045F80C1C256093E770B504460D46164631
:104E000000F0DEF8A5F10C0123680A689D420CBF92
:104E1000226046F80C2C0022FF230A608B72BDE84A
:104E20007040D8E0F8B5424C424A6578002600232D
:104E300011E018275F4302EB070CD75D874204D1CE
:104E40000F0018BF01278CF810709CF810703E43BB
:104E500018BF01265B1C2778BB42EADB01F04BFB45
:104E60000746300009D1012D28460FD100F047FE3A
:104E7000022000F044FE002508E0280006D10120B1
:104E800000F0A8FE022000F0A5FE0125384601F042
:104E900063FB65703046F2BD014688684968084783
:104EA0002DE9F84189B080460F4616461D0008BF1F
:104EB000022035D02C68F4B90C20FFF751FD040016
:104EC00015D00823242200216846FFF701FD0020A9
:104ED0000590ADF81000069400236A464146164836
:104EE000FFF7FAFC20606760A660206808B9082018
:104EF00016E02C600CE000F063F80546206801F035
:104F00002DFB10B12068FFF7D7FC284600F063F8AE
:104F100020684146FFF7ECFC2068FFF7D5FC002035
:104F20000AB0BDE8F0810000743100205C850020EB
:104F300094890020DC6D0020994E000070B50500BA
:104F40001CBF2C68002C01D0206808B9022070BD5D
:104F500000F036F80646206801F000FB10B120682A
:104F6000FFF7AAFC2046FFF7C7FC204600F027F811
:104F700000202860304600F02EF8002070BD20B1DF
:104F80000068002818BFFFF797BC704710B513469C
:104F90005A1E3BB110F8013B11F8014BA342F6D069
:104FA000002010BD012010BD03E011F8013B00F806
:104FB000013B13465A1E002BF7D17047D0E415E58C
:104FC00080B5FFF79DFCADF8000001F094FAADF854
:104FD0000200009802BD01B5BDF8020001F0BCFA64
:104FE000BDF80000BDE80240FFF78EBC80B502218D
:104FF00000F002F880B202BD012901D100787047AB
:10500000022904D10178407801EB00207047032980
:1050100007D102784378807802EB032101EB00404E
:10502000704704290AD10278437802EB0321827881
:10503000C07801EB024101EB006070474FF0FE3099
:10504000704701700A0A0B0C090E42708370C17020
:10505000001D704710B540B1002300E05B1CDCB2BE
:10506000944204D2045D8C42F8D0002010BD01208F
:1050700010BD80B501F09EFA80B202BD002201F0A1
:10508000BFB90E0070B501F036FA06469B4840687D
:10509000FA246FF0F90560B1B0F90C108C42C8BF6A
:1050A0000C46B0F90E1000688D42B8BF0D460028BE
:1050B000F2D12946204600F005F83046BDE87040A0
:1050C00001F04ABAF0B48D4BB3F90040A0421ADAAD
:1050D0008B4D8C4C2E782568A5F5407576B2821CD8
:1050E0007543D7052D1105EBE735803D12F1F90F1A
:1050F0002ADA4FF4803505F47F4525631880206A4D
:1051000040F004002062B3F9020088421ADA7C4CB5
:105110007C4A25781468A4F540746DB2881E6C43EF
:10512000C605241104EBE634803C10F1F90F15DAC2
:105130004FF4803404F47F4454635980106A40F083
:1051400008001062F0BC7047FA2AA8BF4FF47F45F0
:10515000D1DA002DCFD56C4A1540CEE7FA28A8BF8A
:105160004FF47F44E6DA002CE4D567480440E3E7D7
:105170002DE9F0476248634D01782A685F4E634F1E
:105180004FF47F432B63FA2131802A6A22F0040214
:105190002A620022007829686A636FF0F900708043
:1051A000296A21F008012962F86B7468D0F80010B0
:1051B00088470FFA80FAE4B1B4F90E90D4F8008071
:1051C000D145BCBFB4F90C108A450FDBD145B8BF3F
:1051D000B4F90C902146301D01F070FA00202269CC
:1051E00020752346A46849465046A0475FEA080454
:1051F000E2D1FFF747FF686A00F00C006862686A56
:1052000010F00C0FF7D139680A6ABDE8F047352075
:10521000104770B584B001F06EF93D4D0446287812
:1052200008BB684601F090F93A490A7801920121D9
:105230008DF808106B46384A3521281D01F038F9E1
:105240003648374B816C21F0040181640322816C64
:1052500021F008018164026009211A6816680220A1
:10526000B04701202870204601F076F904B070BDE7
:1052700000B52C4881B001680A68904700B201B0BF
:1052800000BD2DE9F04381B00446089F0D46164647
:10529000984601F030F9A581E681C4F8088081467E
:1052A0002761207D28B921461F4801F0DDF9012042
:1052B0002075B4F90E10B4F90C00FFF703FF48464F
:1052C00001F04AF9002001B0BDE8F08330B581B0AB
:1052D000044601F010F90546207D012805D121463C
:1052E000114801F0EBF900202075FFF7CBFE2846AE
:1052F00001F032F9002001B030BD0000F430002090
:105300000C1300502850094000FF0100B0010010AC
:10531000EC8300202EB902007151000000500940BA
:1053200084010010EC010010F830002001680A68C8
:10533000104702689368184702681369184770B5E8
:1053400001F0D9F818490546087860B901221748D4
:105350000A7004783CB1164E304656F80C1B4A6968
:105360009047641EF8D12846BDE8704001F0F4B8BB
:105370000000000030B50C4C237881B000227BB1D6
:105380000A4C2578A8420BD209B900BF0CA100EB4A
:1053900040029200064B98189B589A699047024623
:1053A000104601B030BD0000E08900205E8A020096
:1053B000FC27000002A1D1E90023C0E900237047C7
:1053C000000000000100000000238EE001238CE0BB
:1053D00070B504460E46FFF7F3FD054631462046FC
:1053E00000F0E5F804001AD02068FFF765FA2046BF
:1053F000FFF782FA754881688C4203D12169816088
:1054000005E001460869A042FBD1206908612046F9
:10541000FFF7D5FD2846FFF7DEFD002070BD2846CA
:10542000FFF7D9FD022070BDF8B505460E46FFF71F
:10543000C7FD04463146284600F0B9F8002750B1B0
:10544000006801F052F9624A13684FF47A71B1FBB7
:10545000F3F3B0FBF3F72046FFF7BDFD3846F2BD8E
:10546000F8B55A4EFFF7ACFDF468054654B127690C
:105470002046FFF741FA2046FFF7A1FD3C00F6D198
:105480000020F0602846BDE8F240FFF7A4BD4F4A77
:1054900010705160704710B50446A1682079FFF77D
:1054A000C6FB207B00BB2068FFF706FA474A9068DE
:1054B000844203D12069906005E008460169A14259
:1054C000FBD1216901610020D168206111B9D4604C
:1054D00004E0014608690028FBD10C61BDE81040DA
:1054E00051681078FFF7A3BB10BD2DE9F8471E46A1
:1054F000374B8046894618684FF47A71B1FBF0F05B
:10550000424389B01546FFF75BFD82464946404657
:1055100000F04DF8082704000AD02068FFF7CCF906
:1055200020682946FFF7E4F92068FFF7CDF937E056
:105530001420FFF743FD040032D008232422002169
:105540006846FFF7C5F9002E14BF059505960121A1
:10555000ADF81010069400236A4629461D48FFF74F
:10556000BBF92060C8B184F80480C4F808902673A1
:10557000002020611548816811B9846004E001466B
:1055800008690028FBD10C6120682946FFF7B0F9B3
:105590002068FFF799F9002702E02046FFF70FFD8A
:1055A0005046FFF718FD38460AB0BDE8F08720B531
:1055B00002460648806800E0006928B103799342FA
:1055C00004BF85688D42F7D120BD00001086002001
:1055D000D01600009754000062B38B0708D0521E0B
:1055E00011F8013B00F8013B00F024808B07F6D155
:1055F000830740F0208000BF103A07D330B4B1E8F1
:105600003810103AA0E83810F9D230BC530724BF44
:10561000B1E80810A0E8081044BF51F8043B40F876
:10562000043BD20724BF31F8022B20F8022B44BFE1
:105630000B7803707047121F17D35B0009D151F824
:10564000043B20F8023B1B0C121F20F8023BF6D251
:105650000BE051F8043B00F8013B1B0A20F8023B29
:105660001B0C121F00F8013BF3D238BF121D521E53
:1056700024BF11F8013B00F8013BF8D87047030044
:105680006C48006820B1816800291CBF00200847D1
:105690007047FEB5674E1D4633681446002B1CBF8D
:1056A0001A69002A1AD001228DF8002000F04CF867
:1056B00000279A6A1AB1DDE9000190470746A74220
:1056C00001D10020FEBD224634682B46DDE90001F1
:1056D0002569A847012801D10A20FEBD0920FEBD89
:1056E00013460A4601460020D3E71CB5514B1B6800
:1056F0000022002B1CBF9B6A002B08D0012400F065
:1057000023F88DF80040DDE900019847024690B289
:1057100016BD01460020E8E7BCB5464C24680025CC
:10572000002C1CBF6469002C0CD0012700F00CF881
:105730008DF80070DDE90001A04718B10A280CBF00
:1057400009250A252846B6BDADF80200ADF80410BB
:10575000704713460A4601460020DDE77FB5354C09
:105760002468002C1CBFE469002C0FD00126ADF882
:105770000600ADF808108DF80460DDE90101089D10
:105780000095A047012818BF002000D10A2004B0CE
:1057900070BD78B5274C246887B0002C1CBF246AE4
:1057A000002C16D00491ADF8160001260F99BDF813
:1057B00038000C9D03918DF814600026BDF834105C
:1057C00002900191ADF81860DDE905010095A04750
:1057D00000B10A2008B070BD80B5009313460A4698
:1057E00001460020FFF7BAFF02BDFEB5114E336837
:1057F00000251446002B1CBF9A69002A18D00127E7
:105800008DF80070FFF7A0FF9A6A1AB1DDE9000178
:10581000904708B909250BE0A04218BF0C2507D115
:1058200032689369DDE900019847012808BF0A251D
:105830002846FEBDC8580020DFF800F001CE021057
:10584000DFF800F08DDD0210DFF800F049E602100D
:10585000DFF800F0FDE90210DFF800F011DC0210C3
:10586000F0B51C0089B005460E46174605D1002349
:10587000FFF7E6FF284609B0F0BD082324220021E7
:105880006846FFF725F8A16806916B462278ADF8C7
:1058900010203A466068059031462846FFF7D0FF51
:1058A000284609B0F0BDF0B5140089B005460E4693
:1058B000264F05D13B460022FFF70EF809B0F0BD98
:1058C0000823242200216846FFF702F8A168069108
:1058D0003B462278ADF810206A4660680590314654
:1058E0002846FEF7F9FF09B0F0BD00B581B0009081
:1058F0006846FFF701F801B000BDFFF7A5BFFFF74D
:10590000A7BF134800687047FFF7A6BF00F0EDBEC1
:1059100000B581B000F022FE401E8041C043C00FA0
:1059200001B000BD00218160017041607047FEF749
:10593000DFBFFEF7C9BFFEF7BFBF0549096800EB2F
:105940005100B0FBF1F0FFF777BF0000942D00206D
:10595000D0160000DFF83C0880687047DFF8341884
:10596000084490F84A01704702460020022904D1F9
:10597000012A06D140F2EE207047012A08BF4FF4F9
:105980007A707047DFF80C1891F8410120B1D1F816
:105990006C01002818BF00477047F0B5DFF8F447E6
:1059A00094F84201002883B040F090800121DFF894
:1059B000E867DFF8E85784F84211307B84F841014A
:1059C0007168C4F86C11A868C0F38140A0B930694F
:1059D00090B12F68FFF795FFC7F30662642111FBB2
:1059E00002F2B2FBF0F200230FF2ED7104F1940029
:1059F000FFF736FF00F092FE6846FFF793FF0020A6
:105A000001908DF80000002202926B460FF20161B6
:105A1000DFF88C7704F10C00FFF722FF6846FFF7F0
:105A200081FF002001908DF8000002906B46082253
:105A3000DFF8701704F15000FFF712FF00230FF298
:105A40007152322104F1D80000F032FD002038609C
:105A50000023DFF854272C2104F1F40000F028FD86
:105A6000A968707BC1F3815128B1032903D10120BA
:105A700084F8390109E0032918BF022905D001295A
:105A800002D100F05CFE11E081B9386840F04000BE
:105A9000386000F030FDA16841F00401A16094F885
:105AA0004511491C84F8451100F056FD686840070F
:105AB0000CD400F020FDA16841F00101A16094F830
:105AC0004311491C84F8431100F046FD002003B047
:105AD000F0BD30B581B0002408B1150004D16FF0DD
:105AE0000204204601B030BD8160C26003610146FE
:105AF000DFF8A00600F0B8FD204601B030BD10B5BB
:105B0000044600F0F8FCDFF88C160A1992F84331CD
:105B10005B1E82F84331DBB233B98A68012303FA92
:105B200004F422EA04048C6000F016FD002010BD8D
:105B3000F0B581B0054600F0DEFC0446DFF85416EF
:105B4000481990F84A21521E80F84A21D2B232BB3D
:105B5000DFF8580600EB850210F825505688280615
:105B600023D5DFF84C7639680A6A304690473968A1
:105B70008A6A3046904739680A6B30469047DFF8AA
:105B8000341601200860DFF8300601688907FCD56B
:105B900005F03F05152DBCBF2846FFF7C9FF20467D
:105BA00000F0DAFC002001B0F0BD680606D501EB7C
:105BB00086010020D1F860219047E9E7DFF8F01571
:105BC0000B689A6930469047304600F019FE02286B
:105BD000FAD1DDE710B5044600F08DFCDFF8B4150E
:105BE0008A680123A3401A438A60214491F8432123
:105BF000521C81F8432100F0AFFC002010BD2DE9BC
:105C0000F041064600F077FC0446DFF88855A819F5
:105C100090F84A114A1C80F84A2139BBDFF88C857C
:105C200018F8260000F03F001428D8BFFFF7E7FF60
:105C300008EB8600478818F8260001061CD5DFF817
:105C400070552A68D169384688472A68516A3846AB
:105C500088472A68D16A38468847DFF858250120E6
:105C60001060DFF8540501688907FCD5204600F074
:105C700073FC0020BDE8F081400606D505EB8701E6
:105C80000120D1F860219047F0E7DFF824150B6878
:105C90005A6938469047384600F0CFFD0128FAD1BE
:105CA000E4E72DE9F047002700250128A94618BFA1
:105CB0006FF0010840F01081DFF8D844D4F83401C7
:105CC00001285DD10221C4F8341100F03AFE012010
:105CD00000F0A1F95FEA000857D194F85A0100B129
:105CE000012794F8590108B147F0020794F85801C8
:105CF00008B147F00407012000F01DFD01281CBF7A
:105D000094F83801012833D100F013FDDFF8B00416
:105D100001680125C1F3814058B9DFF87C040669A8
:105D20003EB104F19400FFF706FE00F03AFD0020BA
:105D3000B04794F83801D8B1DFF88804D0F884125D
:105D400021F08001C0F884128022C0F88C2200F07B
:105D5000D2FB94F84611491E84F84611C9B219B90C
:105D6000A16821F00801A16000F0F6FB84F83891E9
:105D7000207ADFF83C64C1070FD54FF0010915E028
:105D80006FF004084046BDE8F0870120C4F83401F4
:105D900000F0E0FD4046BDE8F087316ADFF82804F6
:105DA0008A6890478246BAF1040FF6D0484600F060
:105DB0000AFDB9F1000F0AD1BAF1010F05D1326A1B
:105DC000DFF8040453680121984700F0ACFC316807
:105DD0004A693846904794F8540120B13168CA6A3C
:105DE0004FF48060904794F8530120B13168CA6A3B
:105DF0004FF481609047DFF8BC13DFF8C8930120AF
:105E000008600022C9F800200320C4F83401384695
:105E100000F013FD0128FAD1DFF8A07338680420E0
:105E200000F0F9F80646DFF8A41301200860002D01
:105E30003A6843D000F07FFC01283FD094F8380145
:105E400000283BD1DFF878733868C0F3814078B917
:105E5000DFF8440305695DB100F096FC502000F0C6
:105E600097FD0120A84704F19400FFF762FD01E0CF
:105E700000F0A8FD012084F838013868C0F38140A3
:105E800018B9DFF81413086958B9207A810608D4C4
:105E90008020C9F88C02D9F8841241F08001C9F839
:105EA000841200F028FBA16841F00801A16094F879
:105EB0004611491C84F8461100F04EFB00F064FDC9
:105EC000082000F0A8F806430120C4F8340100F0CF
:105ED00041FD0EB14FF0FF384046BDE8F08730B5C8
:105EE00081B0044600F007FB05462146DFF8A40216
:105EF00000F0E4FB284601B0BDE8304000F02CBBC8
:105F000010B50024022802D0032805D008E001F0D3
:105F100043F80446204610BD01F044F9204610BD68
:105F2000FEE7F0B581B000F0E6FA9A49054691F82F
:105F30003801012450B1A64EA6483768D7F80CC0E6
:105F4000002301223C21E04700B90024284600F04C
:105F500003FB204601B0F0BD30B581B000F0CBFAB4
:105F6000044600F03EFD8B4D002085F8380100F01E
:105F7000C2FA95F84611491E85F84611C9B219B9F9
:105F8000A96821F00801A96000F0E6FA204600F0B7
:105F9000E3FA814884680220A0470546102000F0FB
:105FA0003AF8012D04BF0320A04701B030BD000026
:105FB00030B57B4C81B06568206820EA050105405A
:105FC0006A0621601DD5042000F0B5FB022818BF29
:105FD000032804D0012814D100F0B1FB11E000F037
:105FE000AEFB00F088FA6B4991F84521521E81F80A
:105FF0004521D2B21AB98A6822F004028A6000F000
:10600000ABFA280648BF00F021F8A56001B030BD0A
:1060100070470020704730B505465E48046881B07F
:106020005CB1A068284205D02269E36800212846B7
:10603000984728B92468002CF3D1002001B030BD66
:106040004FF0FF3001B030BD0020704730B581B057
:1060500000F051FA044600F08CFB00B9FEE700F0B6
:106060004AFA4C4D95F84611491E85F84611C9B2B9
:1060700019B9A96821F00801A96000F06DFA0020A3
:1060800085F83801204600F067FA4348846802200A
:10609000A04705461020FFF7BEFF012D04BF0320D7
:1060A000A04701B030BD70B5012841D100F043FBDD
:1060B00001286DD0374D95F83801002868D1404E41
:1060C0003068C0F3814070B9334804695CB100F0B6
:1060D0005BFB502000F05CFC0120A04705F1940020
:1060E000FFF727FC01E000F06DFC012085F8380186
:1060F0003068C0F3814010B92749086948B9287A47
:10610000810606D4264880228260016841F0800121
:10611000016000F0F0F9A96841F00801A96095F864
:106120004611491C85F8461100F016FA002070BD92
:1061300070BB00F0FEFA2248164D0068C0F38140A3
:1061400050B9154804693CB105F19400FFF7F3FB21
:1061500000F027FB0020A04795F83801C0B1104897
:10616000016821F0800101608021816000F0C3F9A5
:1061700095F84611491E85F84611C9B219B9A968A2
:1061800021F00801A96000F0E7F9002085F8380146
:10619000002070BD842F0020E4280000AC4F005088
:1061A000902208408B72000001700000B02D0000AA
:1061B000B801001028200860282008402C20094041
:1061C000B44F00500C200840004003400C400940F0
:1061D000A401001000A00C4000B581B000F0EEFA60
:1061E00001B05DF804EB31E70FB581B001F076F84E
:1061F0000949212205E00FB581B001F06FF8064989
:106200002222425001B00FBD80B501F067F803496A
:10621000084402BD00000000808900208089002021
:106220002DE9F041102705460E469046082B38BF51
:10623000082398B2FEF75DFC040010D0267000F031
:1062400037F800F03BF840B9FEF73AFBFEF716FDD1
:1062500000F03CF80028F7D0477800F042F83846C4
:10626000BDE8F0812DE9F8430546089810260F4651
:10627000904699460C2838BF0C2080B2FEF739FCB6
:10628000040012D0277000F013F8C4F8089000F052
:1062900015F840B9FEF714FBFEF7F0FC00F016F815
:1062A0000028F7D0467800F01CF83046BDE8F283AD
:1062B00000206070A570C4F80480704721460A4829
:1062C0000078FEF739BC08490870704721782846E5
:1062D000FEF75CBD0A4608230421A1E7FFF7C2FFD1
:1062E00002BD2046FEF719BCD18900200A460823CA
:1062F000142195E70A460823202191E70A4608233E
:1063000022218DE70A4608234D2189E70A46082302
:106310002C2185E70A460823B02181E70A46082395
:10632000B6217DE70B460C210091002270470A46FA
:106330000823C12174E703230022CD2170E780B533
:10634000FFF7F0FFC421C9E738B5044601252078DE
:10635000801F46D0423848D018383ED0401E3CD02E
:10636000401E012841D9801E2FD0401E33D0401E30
:1063700031D0801E2FD0801E032836D9001F2AD08E
:10638000401E28D0401E26D0401E24D0401E022889
:106390002BD9C01E21D0401E23D0401E25D0C01EA8
:1063A00023D0801E21D015381FD0401E17D0C01E0C
:1063B000012884BF3038062817D91B3815D0801E15
:1063C000012812D9093810D012E0606908B1FEF72F
:1063D000F6FDE06906E0E06804E0606902E0E06A7A
:1063E00000E0A06808B1FEF7EAFDFFF77AFF00E0E1
:1063F0000025284632BD010062F30F2262F31F42DE
:10640000401810F0030308D0C91A1FD3DB0748BF98
:1064100000F8012D28BF20F8022D130030B41446D7
:106420001546103928BF20E93C00FAD8490728BF93
:1064300020E90C0048BF40F8042D890028BF20F84F
:10644000022D48BF00F8012D30BC7047C91818BF95
:1064500000F8012DCB0728BF00F8012D70477047C9
:10646000002200F041BF4FF0FF307047DFF800F02E
:1064700049EB0210DFF800F075E40210DFF800F0DD
:1064800055EB0210DFF800F0D9D80210DFF800F069
:106490001DD90210DFF800F047EC0210DFF800F021
:1064A00019E90210DFF800F0FDE8021000F036BF35
:1064B000F0B51C008DB005460E46174604D10023EA
:1064C00000F042FF0DB0F0BD0823302200216846E5
:1064D000FFF7CCFF206805906B46606808903A464D
:1064E000207AADF818003146284600F02DFF0DB097
:1064F000F0BDFFF7BFBFFFF7C1BFFFF7C3BFFFF797
:10650000C5BF10B5FFF7BAFF0446FFF7C3FF601E13
:106510008041C00F10BD00F037BFF0B581B0044618
:106520000D461646FFF7AAFF074632462946204683
:1065300000F034FF384601B0BDE8F040FFF7AABFD5
:10654000FFF7ACBFFFF7AEBF002101604FF0FF3295
:106550000123426003727047FFF79CBF808A704737
:1065600030B5ADB00BA88421FFF77AFF04210BAC46
:1065700021A58DF818100094019500F0FCFF06A9E4
:10658000684601F039F805000DD01422184902A818
:1065900001F034F902A9284601F076F804462846AD
:1065A00001F068F81CB14FF0FF302DB030BD002075
:1065B0002DB030BD10B5FFF79EFF0D4A91685368AE
:1065C000D468D160936084EA94041168516081EAD0
:1065D000440383EA01135C40136906491460CB1835
:1065E00013611C19FFF7B8FF204610BD0000000022
:1065F000FC850020C5870500FF00000000000000AA
:106600000001000010B50446FFF775FF002161602E
:106610002160BDE81040FFF79FBF30B581B005464F
:10662000FFF769FF2C683CB12168296021680029C7
:106630001ABF00224A606960FFF78EFF204601B052
:1066400030BD70B504460D461646FFF754FF2E6068
:10665000716869607168002914BF0D6025607560FC
:10666000BDE87040FFF778BF30B581B004460D46F5
:10667000FFF741FF0021296062686A6061680029B4
:1066800014BF0D602560656001B0BDE83040FFF7C4
:1066900063BF30B581B004460D46FFF72CFF21687B
:1066A000296000226A602168002914BF4D6065607E
:1066B000256001B0BDE83040FFF74EBF30B581B076
:1066C00004460D46FFF717FF29686A6800290CBFCA
:1066D00062604A6069682A6800290CBF22600A600B
:1066E00001B0BDE83040FFF737BF70B5044601F098
:1066F0008FF80646A08A002501280AD1FFF7ACF8DA
:106700000546E068A168451BA9423EBF2069A84232
:106710000025304601F07DF8284670BD2E494FF027
:106720000040086070472D48016841F00301016096
:10673000704700F081B92A490A6813681847F0B514
:1067400081B00326274C284D00961C2326687768C5
:106750004FF0405200212846B847012000902846BB
:106760002468656809234FF400720021A84701B02E
:10677000F0BD00B581B000F034F910B900F031F986
:1067800000B1012001B000BD184819490068C00FD0
:1067900003D04FF44050086070474FF480520A60B5
:1067A0007047124813490068C00F03D04FF441509E
:1067B000086070474FF482520A6070470C494020CD
:1067C000086000F0FFB84FF0FF32002101F06AB816
:1067D000094801684A68104700A10C40242208407B
:1067E000E0010010A401001000A00C40AC4F0050CC
:1067F000A8A00C4028A10C40E801001001F03EB810
:1068000030B51C4B1A685B6D0021C50704D5D40751
:1068100001D45B0700D50121830703D5540804F098
:1068200001042143400703D5920802F001021143FD
:1068300009B1012030BD022030BD30B50D4B1A68C2
:106840005B6D0121C50704D5D40702D45B0758BF8F
:106850000021830703D5540804F0010421404007B8
:1068600003D5920802F00102114009B1012030BDA8
:10687000022030BD40210840DFF800F025EA021078
:10688000DFF800F061DB021030BF704730B581B037
:1068900000F076F8FFF79CFFFFF75CF8054605F07F
:1068A0000C000C2804D1AFF30080FFF7EDFF41E0AE
:1068B000680725D401F0A8F8044601210120FFF75C
:1068C00053F82949096801FB04F2904218D2F020DC
:1068D000B0FBF1F0254D211A05F10C00FEF708F888
:1068E00005F10C00FDF7F0FFAFF300800120FFF78A
:1068F000D8F9AFF3008005F10C00FDF7DDFF1BE0D8
:10690000AFF30080280713D419491A480A6893681E
:1069100098470428F8D0E90600D408B9012000E01F
:106920000020FFF76BFF144801210160006801E0BF
:10693000FFF7AAFFAFF3008001B0BDE8304000F0E0
:1069400023B810B50D4CFDF7DBFF2060FFF794FF77
:10695000606010BD10B5094C6068FFF791FF2068BA
:10696000BDE81040FDF7D0BFD0160000842F0020F6
:10697000D8010010004003402C200940C8870020A7
:10698000EFF3108072B67047EFF3108062B6704775
:106990000138FDD17047704738B5DFF8A805DFF83A
:1069A000A855048814F0010403D14FF00121296097
